{
  "_format": "hh-sol-artifact-1",
  "contractName": "MyEpicNFT",
  "sourceName": "contracts/MyEpicNFT.sol",
  "abi": [
    {
      "inputs": [],
      "stateMutability": "nonpayable",
      "type": "constructor"
    },
    {
      "anonymous": false,
      "inputs": [
        {
          "indexed": true,
          "internalType": "address",
          "name": "owner",
          "type": "address"
        },
        {
          "indexed": true,
          "internalType": "address",
          "name": "approved",
          "type": "address"
        },
        {
          "indexed": true,
          "internalType": "uint256",
          "name": "tokenId",
          "type": "uint256"
        }
      ],
      "name": "Approval",
      "type": "event"
    },
    {
      "anonymous": false,
      "inputs": [
        {
          "indexed": true,
          "internalType": "address",
          "name": "owner",
          "type": "address"
        },
        {
          "indexed": true,
          "internalType": "address",
          "name": "operator",
          "type": "address"
        },
        {
          "indexed": false,
          "internalType": "bool",
          "name": "approved",
          "type": "bool"
        }
      ],
      "name": "ApprovalForAll",
      "type": "event"
    },
    {
      "anonymous": false,
      "inputs": [
        {
          "indexed": false,
          "internalType": "address",
          "name": "sender",
          "type": "address"
        },
        {
          "indexed": false,
          "internalType": "uint256",
          "name": "tokenId",
          "type": "uint256"
        }
      ],
      "name": "NewEpicNFTMinted",
      "type": "event"
    },
    {
      "anonymous": false,
      "inputs": [
        {
          "indexed": true,
          "internalType": "address",
          "name": "from",
          "type": "address"
        },
        {
          "indexed": true,
          "internalType": "address",
          "name": "to",
          "type": "address"
        },
        {
          "indexed": true,
          "internalType": "uint256",
          "name": "tokenId",
          "type": "uint256"
        }
      ],
      "name": "Transfer",
      "type": "event"
    },
    {
      "inputs": [
        {
          "internalType": "address",
          "name": "to",
          "type": "address"
        },
        {
          "internalType": "uint256",
          "name": "tokenId",
          "type": "uint256"
        }
      ],
      "name": "approve",
      "outputs": [],
      "stateMutability": "nonpayable",
      "type": "function"
    },
    {
      "inputs": [
        {
          "internalType": "address",
          "name": "owner",
          "type": "address"
        }
      ],
      "name": "balanceOf",
      "outputs": [
        {
          "internalType": "uint256",
          "name": "",
          "type": "uint256"
        }
      ],
      "stateMutability": "view",
      "type": "function"
    },
    {
      "inputs": [
        {
          "internalType": "uint256",
          "name": "tokenId",
          "type": "uint256"
        }
      ],
      "name": "getApproved",
      "outputs": [
        {
          "internalType": "address",
          "name": "",
          "type": "address"
        }
      ],
      "stateMutability": "view",
      "type": "function"
    },
    {
      "inputs": [],
      "name": "getTotalNFTsMintedSoFar",
      "outputs": [
        {
          "internalType": "uint256",
          "name": "",
          "type": "uint256"
        }
      ],
      "stateMutability": "view",
      "type": "function"
    },
    {
      "inputs": [
        {
          "internalType": "address",
          "name": "owner",
          "type": "address"
        },
        {
          "internalType": "address",
          "name": "operator",
          "type": "address"
        }
      ],
      "name": "isApprovedForAll",
      "outputs": [
        {
          "internalType": "bool",
          "name": "",
          "type": "bool"
        }
      ],
      "stateMutability": "view",
      "type": "function"
    },
    {
      "inputs": [],
      "name": "makeAnEpicNFT",
      "outputs": [],
      "stateMutability": "nonpayable",
      "type": "function"
    },
    {
      "inputs": [],
      "name": "name",
      "outputs": [
        {
          "internalType": "string",
          "name": "",
          "type": "string"
        }
      ],
      "stateMutability": "view",
      "type": "function"
    },
    {
      "inputs": [
        {
          "internalType": "uint256",
          "name": "tokenId",
          "type": "uint256"
        }
      ],
      "name": "ownerOf",
      "outputs": [
        {
          "internalType": "address",
          "name": "",
          "type": "address"
        }
      ],
      "stateMutability": "view",
      "type": "function"
    },
    {
      "inputs": [
        {
          "internalType": "uint256",
          "name": "tokenId",
          "type": "uint256"
        }
      ],
      "name": "pickRandomColor",
      "outputs": [
        {
          "internalType": "string",
          "name": "",
          "type": "string"
        }
      ],
      "stateMutability": "view",
      "type": "function"
    },
    {
      "inputs": [
        {
          "internalType": "uint256",
          "name": "tokenId",
          "type": "uint256"
        }
      ],
      "name": "pickRandomFirstWord",
      "outputs": [
        {
          "internalType": "string",
          "name": "",
          "type": "string"
        }
      ],
      "stateMutability": "view",
      "type": "function"
    },
    {
      "inputs": [
        {
          "internalType": "uint256",
          "name": "tokenId",
          "type": "uint256"
        }
      ],
      "name": "pickRandomSecondWord",
      "outputs": [
        {
          "internalType": "string",
          "name": "",
          "type": "string"
        }
      ],
      "stateMutability": "view",
      "type": "function"
    },
    {
      "inputs": [
        {
          "internalType": "uint256",
          "name": "tokenId",
          "type": "uint256"
        }
      ],
      "name": "pickRandomThirdWord",
      "outputs": [
        {
          "internalType": "string",
          "name": "",
          "type": "string"
        }
      ],
      "stateMutability": "view",
      "type": "function"
    },
    {
      "inputs": [
        {
          "internalType": "address",
          "name": "from",
          "type": "address"
        },
        {
          "internalType": "address",
          "name": "to",
          "type": "address"
        },
        {
          "internalType": "uint256",
          "name": "tokenId",
          "type": "uint256"
        }
      ],
      "name": "safeTransferFrom",
      "outputs": [],
      "stateMutability": "nonpayable",
      "type": "function"
    },
    {
      "inputs": [
        {
          "internalType": "address",
          "name": "from",
          "type": "address"
        },
        {
          "internalType": "address",
          "name": "to",
          "type": "address"
        },
        {
          "internalType": "uint256",
          "name": "tokenId",
          "type": "uint256"
        },
        {
          "internalType": "bytes",
          "name": "_data",
          "type": "bytes"
        }
      ],
      "name": "safeTransferFrom",
      "outputs": [],
      "stateMutability": "nonpayable",
      "type": "function"
    },
    {
      "inputs": [
        {
          "internalType": "address",
          "name": "operator",
          "type": "address"
        },
        {
          "internalType": "bool",
          "name": "approved",
          "type": "bool"
        }
      ],
      "name": "setApprovalForAll",
      "outputs": [],
      "stateMutability": "nonpayable",
      "type": "function"
    },
    {
      "inputs": [
        {
          "internalType": "bytes4",
          "name": "interfaceId",
          "type": "bytes4"
        }
      ],
      "name": "supportsInterface",
      "outputs": [
        {
          "internalType": "bool",
          "name": "",
          "type": "bool"
        }
      ],
      "stateMutability": "view",
      "type": "function"
    },
    {
      "inputs": [],
      "name": "symbol",
      "outputs": [
        {
          "internalType": "string",
          "name": "",
          "type": "string"
        }
      ],
      "stateMutability": "view",
      "type": "function"
    },
    {
      "inputs": [
        {
          "internalType": "uint256",
          "name": "tokenId",
          "type": "uint256"
        }
      ],
      "name": "tokenURI",
      "outputs": [
        {
          "internalType": "string",
          "name": "",
          "type": "string"
        }
      ],
      "stateMutability": "view",
      "type": "function"
    },
    {
      "inputs": [
        {
          "internalType": "address",
          "name": "from",
          "type": "address"
        },
        {
          "internalType": "address",
          "name": "to",
          "type": "address"
        },
        {
          "internalType": "uint256",
          "name": "tokenId",
          "type": "uint256"
        }
      ],
      "name": "transferFrom",
      "outputs": [],
      "stateMutability": "nonpayable",
      "type": "function"
    }
  ],
  "bytecode": "0x608060405260405180610100016040528060d381526020016200470560d39139600890805190602001906200003692919062000831565b50604051806080016040528060568152602001620047d860569139600990805190602001906200006892919062000831565b506040518060c001604052806040518060400160405280600981526020017f50726f666573736f72000000000000000000000000000000000000000000000081525081526020016040518060400160405280600481526020017f486169720000000000000000000000000000000000000000000000000000000081525081526020016040518060400160405280600881526020017f53686f7070696e6700000000000000000000000000000000000000000000000081525081526020016040518060400160405280600b81526020017f526571756972656d656e7400000000000000000000000000000000000000000081525081526020016040518060400160405280600781526020017f54656e73696f6e0000000000000000000000000000000000000000000000000081525081526020016040518060400160405280600881526020017f4d61727269616765000000000000000000000000000000000000000000000000815250815250600a906006620001e6929190620008c2565b506040518060c001604052806040518060400160405280600681526020017f4d656d626572000000000000000000000000000000000000000000000000000081525081526020016040518060400160405280600b81526020017f5072657061726174696f6e00000000000000000000000000000000000000000081525081526020016040518060400160405280600781526020017f486973746f72790000000000000000000000000000000000000000000000000081525081526020016040518060400160405280600481526020017f4578616d0000000000000000000000000000000000000000000000000000000081525081526020016040518060400160405280600981526020017f43686f636f6c617465000000000000000000000000000000000000000000000081525081526020016040518060400160405280600681526020017f496e6a7572790000000000000000000000000000000000000000000000000000815250815250600b90600662000364929190620008c2565b506040518060c001604052806040518060400160405280600881526020017f537472617465677900000000000000000000000000000000000000000000000081525081526020016040518060400160405280600a81526020017f446566696e6974696f6e0000000000000000000000000000000000000000000081525081526020016040518060400160405280600681526020017f4d656d6f7279000000000000000000000000000000000000000000000000000081525081526020016040518060400160405280600a81526020017f556e69766572736974790000000000000000000000000000000000000000000081525081526020016040518060400160405280600481526020017f466163740000000000000000000000000000000000000000000000000000000081525081526020016040518060400160405280600b81526020017f436f6d7065746974696f6e000000000000000000000000000000000000000000815250815250600c906006620004e2929190620008c2565b506040518060c001604052806040518060400160405280600381526020017f726564000000000000000000000000000000000000000000000000000000000081525081526020016040518060400160405280600781526020017f233038433241380000000000000000000000000000000000000000000000000081525081526020016040518060400160405280600581526020017f626c61636b00000000000000000000000000000000000000000000000000000081525081526020016040518060400160405280600681526020017f79656c6c6f77000000000000000000000000000000000000000000000000000081525081526020016040518060400160405280600481526020017f626c75650000000000000000000000000000000000000000000000000000000081525081526020016040518060400160405280600581526020017f677265656e000000000000000000000000000000000000000000000000000000815250815250600d90600662000660929190620008c2565b50600a600f553480156200067357600080fd5b506040518060400160405280600981526020017f5371756172654e465400000000000000000000000000000000000000000000008152506040518060400160405280600681526020017f53515541524500000000000000000000000000000000000000000000000000008152508160009080519060200190620006f892919062000831565b5080600190805190602001906200071192919062000831565b5050506200075f6040518060400160405280601e81526020017f54686973206973206d79204e465420636f6e74726163742e20576f61682100008152506200076560201b620014cf1760201c565b62000ae3565b62000805816040516024016200077c9190620009f7565b6040516020818303038152906040527f41304fac000000000000000000000000000000000000000000000000000000007bffffffffffffffffffffffffffffffffffffffffffffffffffffffff19166020820180517bffffffffffffffffffffffffffffffffffffffffffffffffffffffff83818316178352505050506200080860201b60201c565b50565b60008151905060006a636f6e736f6c652e6c6f679050602083016000808483855afa5050505050565b8280546200083f9062000a6d565b90600052602060002090601f016020900481019282620008635760008555620008af565b82601f106200087e57805160ff1916838001178555620008af565b82800160010185558215620008af579182015b82811115620008ae57825182559160200191906001019062000891565b5b509050620008be919062000929565b5090565b82805482825590600052602060002090810192821562000916579160200282015b82811115620009155782518290805190602001906200090492919062000831565b5091602001919060010190620008e3565b5b50905062000925919062000948565b5090565b5b80821115620009445760008160009055506001016200092a565b5090565b5b808211156200096c576000818162000962919062000970565b5060010162000949565b5090565b5080546200097e9062000a6d565b6000825580601f10620009925750620009b3565b601f016020900490600052602060002090810190620009b2919062000929565b5b50565b6000620009c38262000a1b565b620009cf818562000a26565b9350620009e181856020860162000a37565b620009ec8162000ad2565b840191505092915050565b6000602082019050818103600083015262000a138184620009b6565b905092915050565b600081519050919050565b600082825260208201905092915050565b60005b8381101562000a5757808201518184015260208101905062000a3a565b8381111562000a67576000848401525b50505050565b6000600282049050600182168062000a8657607f821691505b6020821081141562000a9d5762000a9c62000aa3565b5b50919050565b7f4e487b7100000000000000000000000000000000000000000000000000000000600052602260045260246000fd5b6000601f19601f8301169050919050565b613c128062000af36000396000f3fe608060405234801561001057600080fd5b50600436106101215760003560e01c80636352211e116100ad578063b88d4fde11610071578063b88d4fde14610340578063c575757a1461035c578063c87b56dd1461038c578063de9d132f146103bc578063e985e9c5146103c657610121565b80636352211e1461027657806370a08231146102a657806395d89b41146102d6578063a22cb465146102f4578063b187301f1461031057610121565b8063095ea7b3116100f4578063095ea7b3146101c257806323b872dd146101de5780632de38d68146101fa57806342842e0e1461022a578063514dc8c61461024657610121565b806301ffc9a714610126578063060475901461015657806306fdde0314610174578063081812fc14610192575b600080fd5b610140600480360381019061013b9190612762565b6103f6565b60405161014d9190613488565b60405180910390f35b61015e6104d8565b60405161016b9190613703565b60405180910390f35b61017c61051f565b60405161018991906134a3565b60405180910390f35b6101ac60048036038101906101a791906127b4565b6105b1565b6040516101b991906133f8565b60405180910390f35b6101dc60048036038101906101d79190612726565b610636565b005b6101f860048036038101906101f39190612620565b61074e565b005b610214600480360381019061020f91906127b4565b6107ae565b60405161022191906134a3565b60405180910390f35b610244600480360381019061023f9190612620565b6108cc565b005b610260600480360381019061025b91906127b4565b6108ec565b60405161026d91906134a3565b60405180910390f35b610290600480360381019061028b91906127b4565b610a0a565b60405161029d91906133f8565b60405180910390f35b6102c060048036038101906102bb91906125bb565b610abc565b6040516102cd9190613703565b60405180910390f35b6102de610b74565b6040516102eb91906134a3565b60405180910390f35b61030e600480360381019061030991906126ea565b610c06565b005b61032a600480360381019061032591906127b4565b610d87565b60405161033791906134a3565b60405180910390f35b61035a6004803603810190610355919061266f565b610ea5565b005b610376600480360381019061037191906127b4565b610f07565b60405161038391906134a3565b60405180910390f35b6103a660048036038101906103a191906127b4565b611025565b6040516103b391906134a3565b60405180910390f35b6103c4611177565b005b6103e060048036038101906103db91906125e4565b61143b565b6040516103ed9190613488565b60405180910390f35b60007f80ac58cd000000000000000000000000000000000000000000000000000000007bffffffffffffffffffffffffffffffffffffffffffffffffffffffff1916827bffffffffffffffffffffffffffffffffffffffffffffffffffffffff191614806104c157507f5b5e139f000000000000000000000000000000000000000000000000000000007bffffffffffffffffffffffffffffffffffffffffffffffffffffffff1916827bffffffffffffffffffffffffffffffffffffffffffffffffffffffff1916145b806104d157506104d082611568565b5b9050919050565b6000600e60003373ffffffffffffffffffffffffffffffffffffffff1673ffffffffffffffffffffffffffffffffffffffff16815260200190815260200160002054905090565b60606000805461052e906139a2565b80601f016020809104026020016040519081016040528092919081815260200182805461055a906139a2565b80156105a75780601f1061057c576101008083540402835291602001916105a7565b820191906000526020600020905b81548152906001019060200180831161058a57829003601f168201915b5050505050905090565b60006105bc826115d2565b6105fb576040517f08c379a00000000000000000000000000000000000000000000000000000000081526004016105f290613663565b60405180910390fd5b6004600083815260200190815260200160002060009054906101000a900473ffffffffffffffffffffffffffffffffffffffff169050919050565b600061064182610a0a565b90508073ffffffffffffffffffffffffffffffffffffffff168373ffffffffffffffffffffffffffffffffffffffff1614156106b2576040517f08c379a00000000000000000000000000000000000000000000000000000000081526004016106a9906136c3565b60405180910390fd5b8073ffffffffffffffffffffffffffffffffffffffff166106d161163e565b73ffffffffffffffffffffffffffffffffffffffff16148061070057506106ff816106fa61163e565b61143b565b5b61073f576040517f08c379a0000000000000000000000000000000000000000000000000000000008152600401610736906135a3565b60405180910390fd5b6107498383611646565b505050565b61075f61075961163e565b826116ff565b61079e576040517f08c379a0000000000000000000000000000000000000000000000000000000008152600401610795906136e3565b60405180910390fd5b6107a98383836117dd565b505050565b606060006107e26107be84611a39565b6040516020016107ce9190613392565b604051602081830303815290604052611be6565b9050600a80549050816107f59190613a1d565b9050600a8181548110610831577f4e487b7100000000000000000000000000000000000000000000000000000000600052603260045260246000fd5b906000526020600020018054610846906139a2565b80601f0160208091040260200160405190810160405280929190818152602001828054610872906139a2565b80156108bf5780601f10610894576101008083540402835291602001916108bf565b820191906000526020600020905b8154815290600101906020018083116108a257829003601f168201915b5050505050915050919050565b6108e783838360405180602001604052806000815250610ea5565b505050565b606060006109206108fc84611a39565b60405160200161090c91906133d6565b604051602081830303815290604052611be6565b9050600d80549050816109339190613a1d565b9050600d818154811061096f577f4e487b7100000000000000000000000000000000000000000000000000000000600052603260045260246000fd5b906000526020600020018054610984906139a2565b80601f01602080910402602001604051908101604052809291908181526020018280546109b0906139a2565b80156109fd5780601f106109d2576101008083540402835291602001916109fd565b820191906000526020600020905b8154815290600101906020018083116109e057829003601f168201915b5050505050915050919050565b6000806002600084815260200190815260200160002060009054906101000a900473ffffffffffffffffffffffffffffffffffffffff169050600073ffffffffffffffffffffffffffffffffffffffff168173ffffffffffffffffffffffffffffffffffffffff161415610ab3576040517f08c379a0000000000000000000000000000000000000000000000000000000008152600401610aaa906135e3565b60405180910390fd5b80915050919050565b60008073ffffffffffffffffffffffffffffffffffffffff168273ffffffffffffffffffffffffffffffffffffffff161415610b2d576040517f08c379a0000000000000000000000000000000000000000000000000000000008152600401610b24906135c3565b60405180910390fd5b600360008373ffffffffffffffffffffffffffffffffffffffff1673ffffffffffffffffffffffffffffffffffffffff168152602001908152602001600020549050919050565b606060018054610b83906139a2565b80601f0160208091040260200160405190810160405280929190818152602001828054610baf906139a2565b8015610bfc5780601f10610bd157610100808354040283529160200191610bfc565b820191906000526020600020905b815481529060010190602001808311610bdf57829003601f168201915b5050505050905090565b610c0e61163e565b73ffffffffffffffffffffffffffffffffffffffff168273ffffffffffffffffffffffffffffffffffffffff161415610c7c576040517f08c379a0000000000000000000000000000000000000000000000000000000008152600401610c7390613563565b60405180910390fd5b8060056000610c8961163e565b73ffffffffffffffffffffffffffffffffffffffff1673ffffffffffffffffffffffffffffffffffffffff16815260200190815260200160002060008473ffffffffffffffffffffffffffffffffffffffff1673ffffffffffffffffffffffffffffffffffffffff16815260200190815260200160002060006101000a81548160ff0219169083151502179055508173ffffffffffffffffffffffffffffffffffffffff16610d3661163e565b73ffffffffffffffffffffffffffffffffffffffff167f17307eab39ab6107e8899845ad3d59bd9653f200f220920489ca2b5937696c3183604051610d7b9190613488565b60405180910390a35050565b60606000610dbb610d9784611a39565b604051602001610da7919061332b565b604051602081830303815290604052611be6565b9050600b8054905081610dce9190613a1d565b9050600b8181548110610e0a577f4e487b7100000000000000000000000000000000000000000000000000000000600052603260045260246000fd5b906000526020600020018054610e1f906139a2565b80601f0160208091040260200160405190810160405280929190818152602001828054610e4b906139a2565b8015610e985780601f10610e6d57610100808354040283529160200191610e98565b820191906000526020600020905b815481529060010190602001808311610e7b57829003601f168201915b5050505050915050919050565b610eb6610eb061163e565b836116ff565b610ef5576040517f08c379a0000000000000000000000000000000000000000000000000000000008152600401610eec906136e3565b60405180910390fd5b610f0184848484611c19565b50505050565b60606000610f3b610f1784611a39565b604051602001610f279190613309565b604051602081830303815290604052611be6565b9050600c8054905081610f4e9190613a1d565b9050600c8181548110610f8a577f4e487b7100000000000000000000000000000000000000000000000000000000600052603260045260246000fd5b906000526020600020018054610f9f906139a2565b80601f0160208091040260200160405190810160405280929190818152602001828054610fcb906139a2565b80156110185780601f10610fed57610100808354040283529160200191611018565b820191906000526020600020905b815481529060010190602001808311610ffb57829003601f168201915b5050505050915050919050565b6060611030826115d2565b61106f576040517f08c379a000000000000000000000000000000000000000000000000000000000815260040161106690613643565b60405180910390fd5b600060066000848152602001908152602001600020805461108f906139a2565b80601f01602080910402602001604051908101604052809291908181526020018280546110bb906139a2565b80156111085780601f106110dd57610100808354040283529160200191611108565b820191906000526020600020905b8154815290600101906020018083116110eb57829003601f168201915b505050505090506000611119611c75565b905060008151141561112f578192505050611172565b60008251111561116457808260405160200161114c929190613249565b60405160208183030381529060405292505050611172565b61116d84611c8c565b925050505b919050565b600f54600e60003373ffffffffffffffffffffffffffffffffffffffff1673ffffffffffffffffffffffffffffffffffffffff16815260200190815260200160002054106111c457600080fd5b60006111d06007611d33565b905060006111dd826108ec565b905060006111ea836107ae565b905060006111f784610d87565b9050600061120485610f07565b9050600083838360405160200161121d9392919061326d565b60405160208183030381529060405290506000600886600984604051602001611249949392919061329e565b6040516020818303038152906040529050600061128e8361126984611d41565b60405160200161127a92919061334d565b604051602081830303815290604052611d41565b90506000816040516020016112a391906133b4565b60405160208183030381529060405290506112f26040518060400160405280601581526020017f0a2d2d2d2d2d2d2d2d2d2d2d2d2d2d2d2d2d2d2d2d00000000000000000000008152506114cf565b6112fb816114cf565b6113238160405160200161130f91906132e7565b6040516020818303038152906040526114cf565b6113616040518060400160405280601581526020017f2d2d2d2d2d2d2d2d2d2d2d2d2d2d2d2d2d2d2d2d0a00000000000000000000008152506114cf565b61136b338a611eff565b6113758982611f1d565b611398604051806060016040528060258152602001613b78602591398a33611f91565b6113a26007612030565b600e60003373ffffffffffffffffffffffffffffffffffffffff1673ffffffffffffffffffffffffffffffffffffffff16815260200190815260200160002060008154809291906113f2906139d4565b91905055507febb98688741ffa4c7589bf325de30cf7becb63de567842e1ccdb6cb949fdc82c338a60405161142892919061345f565b60405180910390a1505050505050505050565b6000600560008473ffffffffffffffffffffffffffffffffffffffff1673ffffffffffffffffffffffffffffffffffffffff16815260200190815260200160002060008373ffffffffffffffffffffffffffffffffffffffff1673ffffffffffffffffffffffffffffffffffffffff16815260200190815260200160002060009054906101000a900460ff16905092915050565b611565816040516024016114e391906134a3565b6040516020818303038152906040527f41304fac000000000000000000000000000000000000000000000000000000007bffffffffffffffffffffffffffffffffffffffffffffffffffffffff19166020820180517bffffffffffffffffffffffffffffffffffffffffffffffffffffffff8381831617835250505050612046565b50565b60007f01ffc9a7000000000000000000000000000000000000000000000000000000007bffffffffffffffffffffffffffffffffffffffffffffffffffffffff1916827bffffffffffffffffffffffffffffffffffffffffffffffffffffffff1916149050919050565b60008073ffffffffffffffffffffffffffffffffffffffff166002600084815260200190815260200160002060009054906101000a900473ffffffffffffffffffffffffffffffffffffffff1673ffffffffffffffffffffffffffffffffffffffff1614159050919050565b600033905090565b816004600083815260200190815260200160002060006101000a81548173ffffffffffffffffffffffffffffffffffffffff021916908373ffffffffffffffffffffffffffffffffffffffff160217905550808273ffffffffffffffffffffffffffffffffffffffff166116b983610a0a565b73ffffffffffffffffffffffffffffffffffffffff167f8c5be1e5ebec7d5bd14f71427d1e84f3dd0314c0f7b2291e5b200ac8c7c3b92560405160405180910390a45050565b600061170a826115d2565b611749576040517f08c379a000000000000000000000000000000000000000000000000000000000815260040161174090613583565b60405180910390fd5b600061175483610a0a565b90508073ffffffffffffffffffffffffffffffffffffffff168473ffffffffffffffffffffffffffffffffffffffff1614806117c357508373ffffffffffffffffffffffffffffffffffffffff166117ab846105b1565b73ffffffffffffffffffffffffffffffffffffffff16145b806117d457506117d3818561143b565b5b91505092915050565b8273ffffffffffffffffffffffffffffffffffffffff166117fd82610a0a565b73ffffffffffffffffffffffffffffffffffffffff1614611853576040517f08c379a000000000000000000000000000000000000000000000000000000000815260040161184a90613683565b60405180910390fd5b600073ffffffffffffffffffffffffffffffffffffffff168273ffffffffffffffffffffffffffffffffffffffff1614156118c3576040517f08c379a00000000000000000000000000000000000000000000000000000000081526004016118ba90613543565b60405180910390fd5b6118ce83838361206f565b6118d9600082611646565b6001600360008573ffffffffffffffffffffffffffffffffffffffff1673ffffffffffffffffffffffffffffffffffffffff168152602001908152602001600020600082825461192991906138b8565b925050819055506001600360008473ffffffffffffffffffffffffffffffffffffffff1673ffffffffffffffffffffffffffffffffffffffff168152602001908152602001600020600082825461198091906137d7565b92505081905550816002600083815260200190815260200160002060006101000a81548173ffffffffffffffffffffffffffffffffffffffff021916908373ffffffffffffffffffffffffffffffffffffffff160217905550808273ffffffffffffffffffffffffffffffffffffffff168473ffffffffffffffffffffffffffffffffffffffff167fddf252ad1be2c89b69c2b068fc378daa952ba7f163c4a11628f55a4df523b3ef60405160405180910390a4505050565b60606000821415611a81576040518060400160405280600181526020017f30000000000000000000000000000000000000000000000000000000000000008152509050611be1565b600082905060005b60008214611ab3578080611a9c906139d4565b915050600a82611aac919061382d565b9150611a89565b60008167ffffffffffffffff811115611af5577f4e487b7100000000000000000000000000000000000000000000000000000000600052604160045260246000fd5b6040519080825280601f01601f191660200182016040528015611b275781602001600182028036833780820191505090505b5090505b60008514611bda57600182611b4091906138b8565b9150600a85611b4f9190613a1d565b6030611b5b91906137d7565b60f81b818381518110611b97577f4e487b7100000000000000000000000000000000000000000000000000000000600052603260045260246000fd5b60200101907effffffffffffffffffffffffffffffffffffffffffffffffffffffffffffff1916908160001a905350600a85611bd3919061382d565b9450611b2b565b8093505050505b919050565b600081604051602001611bf99190613232565b6040516020818303038152906040528051906020012060001c9050919050565b611c248484846117dd565b611c3084848484612074565b611c6f576040517f08c379a0000000000000000000000000000000000000000000000000000000008152600401611c6690613503565b60405180910390fd5b50505050565b606060405180602001604052806000815250905090565b6060611c97826115d2565b611cd6576040517f08c379a0000000000000000000000000000000000000000000000000000000008152600401611ccd906136a3565b60405180910390fd5b6000611ce0611c75565b90506000815111611d005760405180602001604052806000815250611d2b565b80611d0a84611a39565b604051602001611d1b929190613249565b6040516020818303038152906040525b915050919050565b600081600001549050919050565b60606000825190506000811415611d6a5760405180602001604052806000815250915050611efa565b60006003600283611d7b91906137d7565b611d85919061382d565b6004611d91919061385e565b90506000602082611da291906137d7565b67ffffffffffffffff811115611de1577f4e487b7100000000000000000000000000000000000000000000000000000000600052604160045260246000fd5b6040519080825280601f01601f191660200182016040528015611e135781602001600182028036833780820191505090505b5090506000604051806060016040528060408152602001613b9d604091399050600181016020830160005b86811015611eb75760038101905062ffffff818a015116603f8160121c168401518060081b905060ff603f83600c1c1686015116810190508060081b905060ff603f8360061c1686015116810190508060081b905060ff603f831686015116810190508060e01b90508084526004840193505050611e3e565b506003860660018114611ed15760028114611ee157611eec565b613d3d60f01b6002830352611eec565b603d60f81b60018303525b508484525050819450505050505b919050565b611f1982826040518060200160405280600081525061220b565b5050565b611f26826115d2565b611f65576040517f08c379a0000000000000000000000000000000000000000000000000000000008152600401611f5c90613603565b60405180910390fd5b80600660008481526020019081526020016000209080519060200190611f8c929190612447565b505050565b61202b838383604051602401611fa9939291906134c5565b6040516020818303038152906040527fe3849f79000000000000000000000000000000000000000000000000000000007bffffffffffffffffffffffffffffffffffffffffffffffffffffffff19166020820180517bffffffffffffffffffffffffffffffffffffffffffffffffffffffff8381831617835250505050612046565b505050565b6001816000016000828254019250508190555050565b60008151905060006a636f6e736f6c652e6c6f679050602083016000808483855afa5050505050565b505050565b60006120958473ffffffffffffffffffffffffffffffffffffffff16612266565b156121fe578373ffffffffffffffffffffffffffffffffffffffff1663150b7a026120be61163e565b8786866040518563ffffffff1660e01b81526004016120e09493929190613413565b602060405180830381600087803b1580156120fa57600080fd5b505af192505050801561212b57506040513d601f19601f82011682018060405250810190612128919061278b565b60015b6121ae573d806000811461215b576040519150601f19603f3d011682016040523d82523d6000602084013e612160565b606091505b506000815114156121a6576040517f08c379a000000000000000000000000000000000000000000000000000000000815260040161219d90613503565b60405180910390fd5b805181602001fd5b63150b7a0260e01b7bffffffffffffffffffffffffffffffffffffffffffffffffffffffff1916817bffffffffffffffffffffffffffffffffffffffffffffffffffffffff191614915050612203565b600190505b949350505050565b6122158383612279565b6122226000848484612074565b612261576040517f08c379a000000000000000000000000000000000000000000000000000000000815260040161225890613503565b60405180910390fd5b505050565b600080823b905060008111915050919050565b600073ffffffffffffffffffffffffffffffffffffffff168273ffffffffffffffffffffffffffffffffffffffff1614156122e9576040517f08c379a00000000000000000000000000000000000000000000000000000000081526004016122e090613623565b60405180910390fd5b6122f2816115d2565b15612332576040517f08c379a000000000000000000000000000000000000000000000000000000000815260040161232990613523565b60405180910390fd5b61233e6000838361206f565b6001600360008473ffffffffffffffffffffffffffffffffffffffff1673ffffffffffffffffffffffffffffffffffffffff168152602001908152602001600020600082825461238e91906137d7565b92505081905550816002600083815260200190815260200160002060006101000a81548173ffffffffffffffffffffffffffffffffffffffff021916908373ffffffffffffffffffffffffffffffffffffffff160217905550808273ffffffffffffffffffffffffffffffffffffffff16600073ffffffffffffffffffffffffffffffffffffffff167fddf252ad1be2c89b69c2b068fc378daa952ba7f163c4a11628f55a4df523b3ef60405160405180910390a45050565b828054612453906139a2565b90600052602060002090601f01602090048101928261247557600085556124bc565b82601f1061248e57805160ff19168380011785556124bc565b828001600101855582156124bc579182015b828111156124bb5782518255916020019190600101906124a0565b5b5090506124c991906124cd565b5090565b5b808211156124e65760008160009055506001016124ce565b5090565b60006124fd6124f88461374f565b61371e565b90508281526020810184848401111561251557600080fd5b612520848285613960565b509392505050565b60008135905061253781613b1b565b92915050565b60008135905061254c81613b32565b92915050565b60008135905061256181613b49565b92915050565b60008151905061257681613b49565b92915050565b600082601f83011261258d57600080fd5b813561259d8482602086016124ea565b91505092915050565b6000813590506125b581613b60565b92915050565b6000602082840312156125cd57600080fd5b60006125db84828501612528565b91505092915050565b600080604083850312156125f757600080fd5b600061260585828601612528565b925050602061261685828601612528565b9150509250929050565b60008060006060848603121561263557600080fd5b600061264386828701612528565b935050602061265486828701612528565b9250506040612665868287016125a6565b9150509250925092565b6000806000806080858703121561268557600080fd5b600061269387828801612528565b94505060206126a487828801612528565b93505060406126b5878288016125a6565b925050606085013567ffffffffffffffff8111156126d257600080fd5b6126de8782880161257c565b91505092959194509250565b600080604083850312156126fd57600080fd5b600061270b85828601612528565b925050602061271c8582860161253d565b9150509250929050565b6000806040838503121561273957600080fd5b600061274785828601612528565b9250506020612758858286016125a6565b9150509250929050565b60006020828403121561277457600080fd5b600061278284828501612552565b91505092915050565b60006020828403121561279d57600080fd5b60006127ab84828501612567565b91505092915050565b6000602082840312156127c657600080fd5b60006127d4848285016125a6565b91505092915050565b6127e6816138ec565b82525050565b6127f5816138fe565b82525050565b600061280682613794565b61281081856137aa565b935061282081856020860161396f565b61282981613b0a565b840191505092915050565b600061283f8261379f565b61284981856137bb565b935061285981856020860161396f565b61286281613b0a565b840191505092915050565b60006128788261379f565b61288281856137cc565b935061289281856020860161396f565b80840191505092915050565b600081546128ab816139a2565b6128b581866137cc565b945060018216600081146128d057600181146128e157612914565b60ff19831686528186019350612914565b6128ea8561377f565b60005b8381101561290c578154818901526001820191506020810190506128ed565b838801955050505b50505092915050565b600061292a6025836137cc565b91507f68747470733a2f2f6e6674707265766965772e30786465762e636f6465732f3f60008301527f636f64653d0000000000000000000000000000000000000000000000000000006020830152602582019050919050565b60006129906032836137bb565b91507f4552433732313a207472616e7366657220746f206e6f6e20455243373231526560008301527f63656976657220696d706c656d656e74657200000000000000000000000000006020830152604082019050919050565b60006129f6601c836137bb565b91507f4552433732313a20746f6b656e20616c7265616479206d696e746564000000006000830152602082019050919050565b6000612a36600a836137cc565b91507f54484952445f574f5244000000000000000000000000000000000000000000006000830152600a82019050919050565b6000612a766024836137bb565b91507f4552433732313a207472616e7366657220746f20746865207a65726f2061646460008301527f72657373000000000000000000000000000000000000000000000000000000006020830152604082019050919050565b6000612adc6019836137bb565b91507f4552433732313a20617070726f766520746f2063616c6c6572000000000000006000830152602082019050919050565b6000612b1c6063836137cc565b91507f222c20226465736372697074696f6e223a20224120686967686c79206163636c60008301527f61696d656420636f6c6c656374696f6e206f6620737175617265732e222c202260208301527f696d616765223a2022646174613a696d6167652f7376672b786d6c3b6261736560408301527f36342c00000000000000000000000000000000000000000000000000000000006060830152606382019050919050565b6000612bce600b836137cc565b91507f5345434f4e445f574f52440000000000000000000000000000000000000000006000830152600b82019050919050565b6000612c0e602c836137bb565b91507f4552433732313a206f70657261746f7220717565727920666f72206e6f6e657860008301527f697374656e7420746f6b656e00000000000000000000000000000000000000006020830152604082019050919050565b6000612c74600d836137cc565b91507f3c2f746578743e3c2f7376673e000000000000000000000000000000000000006000830152600d82019050919050565b6000612cb46038836137bb565b91507f4552433732313a20617070726f76652063616c6c6572206973206e6f74206f7760008301527f6e6572206e6f7220617070726f76656420666f7220616c6c00000000000000006020830152604082019050919050565b6000612d1a602a836137bb565b91507f4552433732313a2062616c616e636520717565727920666f7220746865207a6560008301527f726f2061646472657373000000000000000000000000000000000000000000006020830152604082019050919050565b6000612d806029836137bb565b91507f4552433732313a206f776e657220717565727920666f72206e6f6e657869737460008301527f656e7420746f6b656e00000000000000000000000000000000000000000000006020830152604082019050919050565b6000612de6602e836137bb565b91507f45524337323155524953746f726167653a2055524920736574206f66206e6f6e60008301527f6578697374656e7420746f6b656e0000000000000000000000000000000000006020830152604082019050919050565b6000612e4c6002836137cc565b91507f227d0000000000000000000000000000000000000000000000000000000000006000830152600282019050919050565b6000612e8c6020836137bb565b91507f4552433732313a206d696e7420746f20746865207a65726f20616464726573736000830152602082019050919050565b6000612ecc6031836137bb565b91507f45524337323155524953746f726167653a2055524920717565727920666f722060008301527f6e6f6e6578697374656e7420746f6b656e0000000000000000000000000000006020830152604082019050919050565b6000612f32602c836137bb565b91507f4552433732313a20617070726f76656420717565727920666f72206e6f6e657860008301527f697374656e7420746f6b656e00000000000000000000000000000000000000006020830152604082019050919050565b6000612f986029836137bb565b91507f4552433732313a207472616e73666572206f6620746f6b656e2074686174206960008301527f73206e6f74206f776e00000000000000000000000000000000000000000000006020830152604082019050919050565b6000612ffe602f836137bb565b91507f4552433732314d657461646174613a2055524920717565727920666f72206e6f60008301527f6e6578697374656e7420746f6b656e00000000000000000000000000000000006020830152604082019050919050565b6000613064600a836137cc565b91507f7b226e616d65223a2022000000000000000000000000000000000000000000006000830152600a82019050919050565b60006130a46021836137bb565b91507f4552433732313a20617070726f76616c20746f2063757272656e74206f776e6560008301527f72000000000000000000000000000000000000000000000000000000000000006020830152604082019050919050565b600061310a600a836137cc565b91507f46495253545f574f5244000000000000000000000000000000000000000000006000830152600a82019050919050565b600061314a601d836137cc565b91507f646174613a6170706c69636174696f6e2f6a736f6e3b6261736536342c0000006000830152601d82019050919050565b600061318a6031836137bb565b91507f4552433732313a207472616e736665722063616c6c6572206973206e6f74206f60008301527f776e6572206e6f7220617070726f7665640000000000000000000000000000006020830152604082019050919050565b60006131f06005836137cc565b91507f434f4c4f520000000000000000000000000000000000000000000000000000006000830152600582019050919050565b61322c81613956565b82525050565b600061323e828461286d565b915081905092915050565b6000613255828561286d565b9150613261828461286d565b91508190509392505050565b6000613279828661286d565b9150613285828561286d565b9150613291828461286d565b9150819050949350505050565b60006132aa828761289e565b91506132b6828661286d565b91506132c2828561289e565b91506132ce828461286d565b91506132d982612c67565b915081905095945050505050565b60006132f28261291d565b91506132fe828461286d565b915081905092915050565b600061331482612a29565b9150613320828461286d565b915081905092915050565b600061333682612bc1565b9150613342828461286d565b915081905092915050565b600061335882613057565b9150613364828561286d565b915061336f82612b0f565b915061337b828461286d565b915061338682612e3f565b91508190509392505050565b600061339d826130fd565b91506133a9828461286d565b915081905092915050565b60006133bf8261313d565b91506133cb828461286d565b915081905092915050565b60006133e1826131e3565b91506133ed828461286d565b915081905092915050565b600060208201905061340d60008301846127dd565b92915050565b600060808201905061342860008301876127dd565b61343560208301866127dd565b6134426040830185613223565b818103606083015261345481846127fb565b905095945050505050565b600060408201905061347460008301856127dd565b6134816020830184613223565b9392505050565b600060208201905061349d60008301846127ec565b92915050565b600060208201905081810360008301526134bd8184612834565b905092915050565b600060608201905081810360008301526134df8186612834565b90506134ee6020830185613223565b6134fb60408301846127dd565b949350505050565b6000602082019050818103600083015261351c81612983565b9050919050565b6000602082019050818103600083015261353c816129e9565b9050919050565b6000602082019050818103600083015261355c81612a69565b9050919050565b6000602082019050818103600083015261357c81612acf565b9050919050565b6000602082019050818103600083015261359c81612c01565b9050919050565b600060208201905081810360008301526135bc81612ca7565b9050919050565b600060208201905081810360008301526135dc81612d0d565b9050919050565b600060208201905081810360008301526135fc81612d73565b9050919050565b6000602082019050818103600083015261361c81612dd9565b9050919050565b6000602082019050818103600083015261363c81612e7f565b9050919050565b6000602082019050818103600083015261365c81612ebf565b9050919050565b6000602082019050818103600083015261367c81612f25565b9050919050565b6000602082019050818103600083015261369c81612f8b565b9050919050565b600060208201905081810360008301526136bc81612ff1565b9050919050565b600060208201905081810360008301526136dc81613097565b9050919050565b600060208201905081810360008301526136fc8161317d565b9050919050565b60006020820190506137186000830184613223565b92915050565b6000604051905081810181811067ffffffffffffffff8211171561374557613744613adb565b5b8060405250919050565b600067ffffffffffffffff82111561376a57613769613adb565b5b601f19601f8301169050602081019050919050565b60008190508160005260206000209050919050565b600081519050919050565b600081519050919050565b600082825260208201905092915050565b600082825260208201905092915050565b600081905092915050565b60006137e282613956565b91506137ed83613956565b9250827fffffffffffffffffffffffffffffffffffffffffffffffffffffffffffffffff0382111561382257613821613a4e565b5b828201905092915050565b600061383882613956565b915061384383613956565b92508261385357613852613a7d565b5b828204905092915050565b600061386982613956565b915061387483613956565b9250817fffffffffffffffffffffffffffffffffffffffffffffffffffffffffffffffff04831182151516156138ad576138ac613a4e565b5b828202905092915050565b60006138c382613956565b91506138ce83613956565b9250828210156138e1576138e0613a4e565b5b828203905092915050565b60006138f782613936565b9050919050565b60008115159050919050565b60007fffffffff0000000000000000000000000000000000000000000000000000000082169050919050565b600073ffffffffffffffffffffffffffffffffffffffff82169050919050565b6000819050919050565b82818337600083830152505050565b60005b8381101561398d578082015181840152602081019050613972565b8381111561399c576000848401525b50505050565b600060028204905060018216806139ba57607f821691505b602082108114156139ce576139cd613aac565b5b50919050565b60006139df82613956565b91507fffffffffffffffffffffffffffffffffffffffffffffffffffffffffffffffff821415613a1257613a11613a4e565b5b600182019050919050565b6000613a2882613956565b9150613a3383613956565b925082613a4357613a42613a7d565b5b828206905092915050565b7f4e487b7100000000000000000000000000000000000000000000000000000000600052601160045260246000fd5b7f4e487b7100000000000000000000000000000000000000000000000000000000600052601260045260246000fd5b7f4e487b7100000000000000000000000000000000000000000000000000000000600052602260045260246000fd5b7f4e487b7100000000000000000000000000000000000000000000000000000000600052604160045260246000fd5b6000601f19601f8301169050919050565b613b24816138ec565b8114613b2f57600080fd5b50565b613b3b816138fe565b8114613b4657600080fd5b50565b613b528161390a565b8114613b5d57600080fd5b50565b613b6981613956565b8114613b7457600080fd5b5056fe416e204e465420772f20494420257320686173206265656e206d696e74656420746f2025734142434445464748494a4b4c4d4e4f505152535455565758595a6162636465666768696a6b6c6d6e6f707172737475767778797a303132333435363738392b2fa264697066735822122052e31cbd44b6bff9be88b62fa84fa1ee6000a7d151e5c866f8fd0dec63e848e764736f6c634300080000333c73766720786d6c6e733d27687474703a2f2f7777772e77332e6f72672f323030302f73766727207072657365727665417370656374526174696f3d27784d696e594d696e206d656574272076696577426f783d273020302033353020333530273e3c7374796c653e2e62617365207b2066696c6c3a2077686974653b20666f6e742d66616d696c793a2073657269663b20666f6e742d73697a653a20323470783b207d3c2f7374796c653e3c726563742077696474683d273130302527206865696768743d2731303025272066696c6c3d27272f3e3c7465787420783d273530252720793d273530252720636c6173733d27626173652720646f6d696e616e742d626173656c696e653d276d6964646c652720746578742d616e63686f723d276d6964646c65273e",
  "linkReferences": {},
  "deployedLinkReferences": {}
}